:020000040800F2
:10000000F8470020610200081F210008731D000846
:100010001D21000853080008C9280008000000003E
:10002000000000000000000000000000A101000826
:100030005508000800000000FD010008CD2300085D
:100040007B0200087B0200087B0200087B0200089C
:100050007B0200087B0200087B0200087B0200088C
:100060007B0200087B0200087B0200087B0200087C
:100070007B0200087B0200087B0200087B0200086C
:100080007B0200087B0200087B0200087B0200085C
:100090007B0200087B0200087B0200087B0200084C
:1000A0007B0200087B0200087B0200087B0200083C
:1000B0007B0200087B0200087B0200087B0200082C
:1000C0007B0200087B0200087B0200087B0200081C
:1000D0007B020008BD2800087B0200087B020008A4
:1000E0007B0200087B0200087B0200087B020008FC
:1000F000992400087B0200087B0200087B020008AC
:100100007B0200087B0200087B0200087B020008DB
:100110007B0200087B0200087B0200087B020008CB
:100120007B0200087B0200087B0200087B020008BB
:100130007B0200087B0200087B0200087B020008AB
:100140007B0200087B0200087B0200087B0200089B
:100150007B0200087B0200087B0200087B0200088B
:100160007B0200087B0200087B0200087B0200087B
:100170007B0200087B0200087B02000800000000F0
:100180007B0200087B020008DFF810D000F0E0FAE4
:100190000048004709320008AFF30080F84700200C
:1001A0002C4B19680868B0E8F04F80F30988BFF35A
:1001B0006F8F4FF0000080F311887047000000003F
:1001C00008480068006880F308884FF0000080F35A
:1001D000148862B661B6BFF34F8FBFF36F8F00DF35
:1001E00000BF00BF08ED00E0DFF80C00016841F43B
:1001F00070010160704700BF88ED00E0EFF30980F7
:10020000BFF36F8F134B1A681EF0100F08BF20ED5D
:10021000108A20E9F04F106009B44FF0500080F3CD
:100220001188BFF34F8FBFF36F8F04F04DFD4FF078
:10023000000080F3118809BC19680868B0E8F04F25
:100240001EF0100F08BFB0EC108A80F30988BFF3CE
:100250006F8F70471C000020EFF30580704700008F
:100260000648804706480047FEE7FEE7FEE7FEE750
:10027000FEE7FEE7FEE7FEE7FEE7FEE7892400086B
:10028000890100082DE9F05F0546002092469B4653
:1002900088460646814640241BE02846414647469C
:1002A000224600F08DF853465A46C01A914110D3A9
:1002B00011461846224600F074F82D1A67EB010823
:1002C0004F4622460120002100F06BF817EB000991
:1002D0004E41201EA4F10104DFDC484631462A4687
:1002E0004346BDE8F09F40EA01039B0703D009E0C5
:1002F00008C9121F08C0042AFAD203E011F8013B12
:1003000000F8013B521EF9D27047D2B201E000F86A
:10031000012B491EFBD270470022F6E710B51346A9
:100320000A4604461946FFF7F0FF204610BD421C5E
:1003300010F8011B0029FBD1801A704710B500226C
:1003400000E0521C835C8C5CA34201D1002BF8D1ED
:10035000D8B2E1B2401A10BD30B5054600200346C0
:1003600000E05B1C934205D2EC5CC85C201A01D112
:10037000002CF6D130BD30B50B46014600202022BE
:10038000012409E021FA02F59D4205D303FA02F5A2
:10039000491B04FA02F52844151EA2F10102F1DC02
:1003A00030BD202A04DB203A00FA02F10020704719
:1003B0009140C2F1200320FA03F3194390407047A3
:1003C000202A04DB203A21FA02F00021704721FAAA
:1003D00002F3D040C2F12002914008431946704711
:1003E0002DE9FE4F804681EA0300C00F0C460090C5
:1003F00021F0004123F00045B8EB0200A94105D2ED
:100400004046214690461C460B46024623F00040DB
:10041000104347D0270DC7F30A00C3F30A510290D7
:10042000401A019040286BDAC3F3130040F4801B9C
:100430000098924620B10023D2EB030A63EB0B0B2A
:1004400001985946C0F140025046FFF7AAFF064600
:100450000D4650465946019A00F08CF910EB080001
:100460006141002487EA115284EAE7731A4340D0BD
:10047000009A62B3019A012A4FEA075215DC001B69
:1004800061EB02014FF0004202EA0752CDE900425F
:10049000001C41F5801132462B4600F08CF903B068
:1004A000BDE8F08F40462146F9E7001B61EB0201F1
:1004B000001C41F5801300185B412018A2F50017BD
:1004C00047EB030140EAD570B6196D4111E06D08A4
:1004D0004FEA360645EAC0754FEA0752001B61EB4A
:1004E0000201001C41F5801149084FEA3000001953
:1004F000514132462B4603B0BDE8F04F00F04CB9F5
:100500000098012240000023D0EB020263EBE0736D
:10051000009821464FEAE074B8EB000061EB04015B
:10052000E9E783F000435BE781F0004158E72DE9FC
:10053000FE4F81EA030404F0004421F000410094DE
:100540004FF0000B23F0004350EA01045ED052EA62
:1005500003045BD0C3F30A54C1F30A552C44A4F23C
:10056000F3340194A0FB0254C1F3130141F4801150
:10057000C3F3130343F4801301FB024400FB034E57
:10058000840A970A44EA815447EA8357A4FB076820
:1005900002958D0A05FB07854FEA932C04FB0C544A
:1005A0002705029D4FEA065847EA1637B5EB0805BE
:1005B0006EEB070C870E920E47EA811742EA831210
:1005C000A7FB0201B6EB0B0164EB00042B0D43EA21
:1005D0000C335E1844EB1C50DA465146E7FB02012F
:1005E000C5F313044FEA0B3343EA14534FEA0432C2
:1005F000019C43EA0603A4F10C040294009CCDE99B
:1006000000B400F0D8F803B0BDE8F08F0020014638
:10061000F9E72DE9F04D81EA030404F0004B21F0E5
:10062000004514464FF0000A23F0004150EA05024D
:1006300020D054EA01021DD0C5F30A570246C5F383
:100640001303C1F31300C1F30A5640F4801543F4B9
:100650008013A7EB0608101BD64608F2FD3873EB93
:10066000050002D308F1010801E092185B41B8F1DE
:10067000000F03DA00200146BDE8F08D00204FF4A2
:100680008011064684460EE0171B73EB050705D361
:10069000121B63EB050306434CEA010C49084FEAC1
:1006A000300092185B4150EA0107EDD152EA030095
:1006B00012D082EA040083EA0501084305D0101B2A
:1006C000AB4106D20122002306E000224FF0004396
:1006D00002E06FF0010253101AEB06004CEB0851D8
:1006E00010EB0A0041EB0B01BDE8F04D00F054B8EF
:1006F000C1F30A52C1F3130140F2FF3341F48011F8
:100700009A4202DA00200146704740F233439A428F
:10071000A2F2334202DC5242FFF752BEFFF741BE63
:1007200030B5041E71F1000404DB4FF00044404278
:1007300064EB0101141E73F1000405DB1C464FF04D
:100740000043524263EB0403994208BF904230BD1C
:10075000064C074D06E0E06840F0010394E807000E
:1007600098471034AC42F6D3FFF712FD5C540008F2
:100770007C540008202A06DBCB17203A41FA02F00D
:1007800043EAE07306E041FA02F3D040C2F12002EE
:10079000914008431946704710B5141E73F10004C8
:1007A00008DA401C41F1000192185B411A4301D163
:1007B00020F0010010BD2DE9F04D92469B4611B18D
:1007C000B1FA81F202E0B0FA80F220329046FFF7EF
:1007D000E8FD04460F4640EA0A0041EA0B01534691
:1007E0005A46084313D0114653EA010019D0C8F104
:1007F00040025046FFF7E4FD05460E465046594676
:100800004246FFF7CEFD084305D0012004E0204614
:100810003946BDE8F08D0020054346EAE0762C43DA
:1008200037430A986305E40AA0EB08000022FD0A9A
:1008300044EA47540A3002D500200146E9E70105A1
:1008400010196941DDE9084500196941BDE8F04D1D
:10085000A2E7FEE7704772B6FEE72DE9F0410446D5
:10086000876D00F05BF9064694F8350000250228F4
:1008700006D08020606584F834500120BDE8F08106
:100880002068016821F0160101602068416921F0AB
:1008900080014161206C08B9A06C20B1206801681A
:1008A00021F0080101602068016821F00101016068
:1008B0000CE000F033F9801B052807D92020606583
:1008C000032084F8350084F83450D7E720680068A6
:1008D000C007EED194F85C103F208840B86001203A
:1008E00084F8350084F834500020C7E790F83510BC
:1008F000022903D08021416501207047052180F83D
:1009000035100068016821F0010101600020704786
:100910002DE9F84FDFF8BCA10022012503264FF096
:100920000F090AF1040BAAF1040E00BF0B6805FAC7
:1009300002F42340A34270D10F7907F00307012F7F
:1009400001D0022F16D187684FEA420806FA08FC48
:1009500027EA0C07D1F80CC00CFA08FC4CEA070C8B
:10096000C0F808C04768A7430C79C4F3001494404A
:100970003C4344600C79E443A4070AD0C4684FEABE
:10098000420C06FA0CF7BC438F6807FA0CF72743B2
:10099000C7600C7904F00304022C12D1D40800EBD8
:1009A000840CDCF820405707FF0E09FA07F824EA08
:1009B0000804D1F8108008FA07F848EA0408CCF8CF
:1009C000208004684FEA420C06FA0CF7BC430F790A
:1009D00007F0030707FA0CF7274307604C6814F485
:1009E000403F70D03C4C276847F48047276024681C
:1009F00022F0030704F480440094384C07EB040C05
:100A0000DCF8084897074FEA177809FA08F7BC435B
:100A1000334FB84202D1002724E054E0314FB842AE
:100A200001D101271EE0304FB84201D1022719E061
:100A30002E4FB84201D1032714E02D4FB84201D107
:100A400004270FE02B4FB84201D105270AE02A4FB7
:100A5000B84201D1062705E0284FB84201D1072747
:100A600000E0082707FA08F72743CCF80878DAF8F7
:100A700000405746D1F804C09C435FEACC2C00D517
:100A80001C433C60DBF800405F46D1F804C09C4347
:100A90005FEA8C2C00D51C433C60DEF800407746B2
:100AA000D1F804C09C435FEA8C3C00D51C433C60F9
:100AB000084F083F3C68D1F804C09C435FEACC3C37
:100AC00000D51C433C60521C102AFFF42FAFBDE838
:100AD000F88F0000083C01404438024000300140DB
:100AE000000002400004024000080240000C0240E6
:100AF000001002400014024000180240001C024096
:100B0000426921EA02030A4043EA024181617047D7
:100B10000AB1816170470904FBE700000148806861
:100B2000704700000C0000200248816802781144E0
:100B3000816070470C0000200B4810B5016841F43B
:100B400000710160016841F480610160016841F455
:100B500080710160032000F099F80F2000F006F882
:100B600000F04AF8002010BD003C024030B50546B8
:100B70001C4887B00024016841F002010160006850
:100B800006A900F00200009001A800F02BF900F087
:100B900059F91549154AB0FBF1F11548491E026093
:100BA00040F2E732C0E90324C0E90114846100F097
:100BB00027FD040012D10E4800F062FD04000DD1A3
:100BC0002C2000F035F8102D07D2002229462C20C9
:100BD00000F03CF80748056000E0012407B020461B
:100BE00030BD00004438024040420F000004014084
:100BF00030040020100000200C4882B0016841F44D
:100C000080410160006800F4804000900748001FA8
:100C1000016841F0805101600068002200F08050BE
:100C200000900F21901E02B000F010B8443802402E
:100C3000002809DB00F01F020121914040098000DB
:100C400000F1E020C0F8001170470000F0B40E4B36
:100C50001B680C46C3F30223C3F10705042D00D91A
:100C60000425191D072901D2002300E0DB1E0126FF
:100C700006FA05F1491E214099409E40761E164015
:100C80003143F0BC01F04CBE0CED00E0064900F031
:100C9000070208684FF6FF03184040EA0220034AA3
:100CA00010430860704700000CED00E00000FA05FA
:100CB0002DE9F0470E46050065D0DFF81481D8F81D
:100CC0000000F7B200F00700B04207D288F80070C9
:100CD000D8F8000000F00700B04254D128683D4C1D
:100CE000810712D5400703D5206840F4E05020600A
:100CF0002878000703D5206840F460402060206811
:100D0000A96820F0F000084320602878C0072DD0A3
:100D1000304968680839012812D0022813D0032806
:100D200011D00968890700292DDA216821F0030113
:100D300001432160FFF7F2FE814641F2883A0EE05E
:100D400009688903EFE709688901ECE7FFF7E6FE28
:100D5000A0EB0901514502D90320BDE8F0872068C6
:100D6000696800F00C00B0EB810FEFD1D8F80010EB
:100D7000404601F00701B14207D90770006800F052
:100D80000700B04201D00120E7E72878400705D5E9
:100D90002068E96820F4E0500843206028780007C4
:100DA00006D52068296920F4604040EAC10020602F
:100DB00000F058F82168084AC1F30311515CC8409B
:100DC0000649086006480068FFF7D0FE0020C4E727
:100DD000003C024008380240A450000818000020DF
:100DE000100000200F2202600C4A136803F0030376
:100DF0004360136803F0F0038360136803F4E05367
:100E0000C36012684FF4E05303EAD202026104485F
:100E1000006800F0070008607047000008380240D2
:100E2000003C02400448054900680968044AC1F3CF
:100E30008221515CC84070471800002008380240E9
:100E4000B45000080448054900680968044AC1F321
:100E50004231515CC84070471800002008380240F9
:100E6000B4500008154810B5006810F00C02144882
:100E700013D04110042A0FD0082A0ED10F4C241F82
:100E80002268236802F03F025B0207D52068C0F3A6
:100E90008810A0FB010106E0084610BD2168C1F3DF
:100EA0008811A1FB00010023FFF7ECF92168C1F3D1
:100EB0000141491C4900B0FBF1F010BD0838024067
:100EC0000024F4002DE9F84F04006ED02078DFF8FC
:100ED0004C93C007A9F104054AD009F10400016848
:100EE000C1F38101012908D00068C0F38100022804
:100EF0000AD1D9F80000400206D52868800337D50A
:100F000060680028E1D033E06068B0F5803F10D021
:100F1000B0F5A02F286810D020F480302860286811
:100F200020F4802028606068A8B1FFF7F7FD06462E
:100F30000DE0286840F48030F4E740F48020286019
:100F4000F7E700BFFFF7EAFD801B642873D8286825
:100F50008003F7D50CE0FFF7E1FD064605E000BF92
:100F6000FFF7DCFD801B6428F0D828688003F7D4E5
:100F70002078DFF8AC8280074FF0000A3ED5A74802
:100F8000001D016811F00C0F08D00068C0F381004B
:100F900002280BD1D9F80000400207D42868800746
:100FA00016D5E068012800D112E033E1E068B8B15D
:100FB0000120C8F80000FFF7B1FD064605E000BFBC
:100FC000FFF7ACFD801B0228C0D828688007F7D542
:100FD0002868216920F0F80040EAC10028600DE08F
:100FE000C8F800A0FFF79AFD064604E0FFF796FD5B
:100FF000801B02281FD828688007F7D420780007B4
:1010000022D5864F87486169703771B1012101602F
:10101000FFF784FD064604E0FFF780FD801B0228F1
:1010200009D838688007F7D50EE0C0F800A0FFF7B0
:1010300075FD064605E082E0FFF770FD801B022883
:101040007DD838688007F7D42078400768D5DFF866
:10105000CCB100270BF13C0BDBF80000C0000BD437
:10106000DBF8001041F08051CBF80010DBF80000F5
:10107000012700F0805000906B4E3068C00510D4FE
:10108000306840F480703060FFF748FD009005E064
:10109000FFF744FD0099401A022850D83068C00577
:1010A000F6D55E4EA0686C3601280FD00528306852
:1010B00010D020F001003060306820F00400306073
:1010C000A068B8B1FFF72AFD00900FE0306840F04B
:1010D0000100F4E740F004003060F7E7FFF71EFD81
:1010E0000099411A41F28830814266D83068800701
:1010F000F4D50EE0FFF712FD009007E0FFF70EFDBC
:101100000099411A41F28830814256D830688007F0
:10111000F4D42FB1DBF8001021F08051CBF800108F
:10112000A069C8B33D49091D0968C1F381010229BD
:101130004AD00228504607D0C8F8600000E03CE0E2
:10114000FFF7ECFC04463BE04746C8F86000FFF7B9
:10115000E5FC064605E000BFFFF7E0FC801B022827
:101160002BD828688001F7D4D4E907010843A16A85
:101170002E4A490802EB0141626A41EA82110843A2
:1011800094F82C1040EA0161C9F80010012038667B
:10119000FFF7C4FC044606E03EE000BFFFF7BEFCDC
:1011A000001B022809D828688001F7D534E000BF69
:1011B000FFF7B4FC001B022802D90320BDE8F88F1A
:1011C00028688001F4D427E00128F7D0D9F800007E
:1011D000E26900F4800191421CD1226A00F03F01D3
:1011E000914217D147F6C071626A0140B1EB821F8C
:1011F00010D1A26A4FF0FF3300F4403103EB5202EA
:10120000B1EB024F06D194F82C1000F07060B0EBF7
:10121000016F01D00120D1E70020CFE70438024060
:1012200000004742800E4742007000400000FFFF70
:1012300070B5040009D0606A002540B12561656180
:10124000A56294F8510040B10CE0012070BD6068C7
:10125000B0F5827FF4D0E561F2E784F85050204683
:1012600000F044F8022084F851002068016821F061
:1012700040010160A088218900F4827001F40441DA
:101280000843A18901F400610843217C01F00201B7
:101290000843217D01F001010843218B01F4007115
:1012A0000843217F01F03801084394F8201001F031
:1012B00080010843218D01F4005108432168086032
:1012C000A069042101EA104094F8241001F01001F3
:1012D0000843216848602068C16921F40061C16148
:1012E0006565012084F85100002070BDF0B587B01D
:1012F000044614216846FFF70FF81C49206888420D
:1013000032D11B480024016841F48041016000682B
:1013100000F48040059016481038016841F004013F
:101320000160016801F004010591016841F00201CA
:1013300001600068022500F0020005900C20CDE954
:10134000000502AA0326052782E8D000694609485D
:10135000FFF7DEFA6802CDE9000502AA694682E8D5
:10136000D0000548FFF7D4FA07B0F0BD00380040C0
:101370004038024000080240000402402DE9FF4FBF
:1013800081B0044690F8500000260E9F1D469346FB
:101390004FF0010901280FD04FF0010A84F850A046
:1013A000FFF7BCFB804694F85100616801280DD01E
:1013B000B1F5827F08D103E0022005B0BDE8F08FCF
:1013C000A16809B9042801D00226C9E002980028C2
:1013D00065D0BBF1000FFBD0002DF9D094F851007F
:1013E000042802D0052084F8510000206065C4F86C
:1013F00038B0E587A58702992163E586A586206434
:10140000606420680168490603D4016841F0400126
:101410000160E068B0F5006F606803D0F0B3012DA3
:1014200047D081E008B1012D3CD1206B21680088B4
:10143000C860206B801C2063E08E401EE08631E097
:101440002068816889070FD5E18E69B1B9F1010F74
:101450000AD1216B0988C160206B801C2063E08E5B
:10146000401EE0864FF0000920688168C9070CD053
:10147000E18F51B1C068A16B0880A06B801CA06394
:10148000E08F401EE0874FF00109FFF747FBA0EB1C
:101490000800B84206D3781C04D001E009E05BE004
:1014A00003265BE0E08E0028CAD1E08F0028C7D178
:1014B00040E0206B216800780873206B401C20639B
:1014C000E08E401EE0862FE02068816889070FD5F6
:1014D000E18E69B1B9F1010F0AD1216B097801736D
:1014E000206B401C2063E08E401EE0864FF0000918
:1014F00020688168C9070CD0E18F51B1C068A16B29
:101500000870A06B401CA063E08F401EE0874FF086
:101510000109FFF703FBA0EB0800B84202D3781CD7
:1015200002D0BAE7002FB8D0E08E0028CCD1E08FEF
:101530000028C9D142463946204600F061FE18B164
:101540000126202060650BE0A06818B92068C168FA
:1015500080680090606D08B1012601E084F851A018
:10156000002084F85000304627E77047704700009D
:1015700070B590F83C20012A32D0012480F83C401C
:10158000022280F83D2003685A689D6822F07006A8
:101590000A6832435A60134B02689A4214D0B2F17F
:1015A000804F11D0104B9A420ED0104B9A420BD064
:1015B0000F4B9A4208D00F4B9A4205D00E4B9A42DD
:1015C00002D00E4B9A4204D1496825F0800319439A
:1015D000916080F83D40002180F83C10084670BDC5
:1015E000022070BD000001400004004000080040DF
:1015F000000C004000040140004001400018004081
:1016000010B5040003D094F83D0010B107E00120AC
:1016100010BD002084F83C00204600F01FF8022096
:1016200084F83D00211D206800F03CFF012084F873
:10163000460084F83E0084F83F0084F8400084F8B7
:10164000410084F8420084F8430084F8440084F8A0
:10165000450084F83D00002010BD000008B500687A
:10166000B0F1804F08D10548016841F001010160E7
:10167000006800F00100009008BD00004038024002
:1016800090F83D10012901D001207047022180F817
:101690003D100168CA6842F00102CA600068114941
:1016A000884214D0B0F1804F11D00F4988420ED03B
:1016B0000E4988420BD00E49884208D00D49884215
:1016C00005D00D49884202D00C49884204D1816876
:1016D00001F00701062903D0016841F00101016012
:1016E0000020704700000140000400400008004056
:1016F000000C004000040140004001400018004080
:1017000070B5044690F83C000025012817D001264A
:1017100084F83C60022084F83D002068826822F052
:10172000770222F47F4282600868502838D00DDCAE
:1017300020284FD005DC90B3102811D14AE00220B8
:1017400070BD302846D040280AD13BE060282FD019
:1017500070280DD0B0F5805F03D0B0F5005F12D0D7
:10176000012584F83D60002084F83C00284670BDC7
:10177000CB68D1E90121206800F000FF2068816872
:1017800041F0770109E0CB68D1E90121206800F040
:10179000F5FE2068816841F480418160E1E719E04D
:1017A000CA684968206800F0FBFE5021206806E006
:1017B000CA684968206800F004FF6021206800F0D2
:1017C000E7FECEE7CA684968206800F0E9FE4021DC
:1017D0002068F4E7226801461046F0E770472DE9DB
:1017E000F04104460068C66805694FF00007A90784
:1017F00013D5B10711D5F91E0161012020772068AA
:1018000080698007204602D0FFF7E8FF04E000F07F
:101810007EF8204600F07CF82777680716D5700719
:1018200014D521686FF00400086102202077206839
:10183000806910F4407F204602D0FFF7CFFF04E01C
:1018400000F065F8204600F063F82777280715D5E3
:10185000300713D521686FF0080008610420207755
:101860002068C0698007204602D0FFF7B7FF04E078
:1018700000F04DF8204600F04BF82777E80616D523
:10188000F00614D521686FF0100008610820207759
:101890002068C06910F4407F204602D0FFF79EFF09
:1018A00004E000F034F8204600F032F82777E8072B
:1018B00008D0F00706D021686FF0010008612046CB
:1018C00000F028F8280608D5300606D521686FF004
:1018D000800008612046FFF748FE680608D57006BC
:1018E00006D521686FF040000861204600F01CF822
:1018F000A8060AD5B00608D521686FF02000086157
:101900002046BDE8F041FFF731BEBDE8F0817047E9
:101910007047000000680349884201D1FFF704B90D
:101920007047000000040140704770477047000096
:10193000F8B5016804460868CA684B6910F00F0FD3
:101940004FF0000559D003F0010602F490773743B9
:1019500065D0C10705D0D10503D5616C41F0010107
:101960006164410705D5D90703D0616C41F00201DC
:101970006164810705D5D90703D0616C41F004018A
:101980006164010707D502F02001314303D0616C87
:1019900041F008016164616C00293AD0800604D5E9
:1019A000900602D5204600F04DFE20684069616C2B
:1019B000C0F38010090700D460B3204600F01BFE7E
:1019C00020684069400621D52068143050E8001F87
:1019D00021F0400140E80012002AF5D1E06BA8B1E7
:1019E0006E490165E06BFEF781FF002811D0E06BC6
:1019F000016D01B0BDE8F040084783060FD593069E
:101A00000DD52046BDE8F84000F01CBE2046FFF78B
:101A10008DFFF8BD2046FFF789FF6564F8BD266B92
:101A20002023012E7DD1C6067BD5D60679D5086840
:101A30004868009048694FF00206400641D5E16BC6
:101A4000086840680004000CE8D0A28D8242E5D905
:101A5000E085C869B0F5807F2DD020680C3050E853
:101A6000001F21F4807140E80012002AF5D120689F
:101A7000143050E8001F21F0010140E80012002A54
:101A8000F5D12068143050E8001F21F0400140E8F3
:101A90000012002AF5D184F84230256320680C300A
:101AA00050E8001F21F0100140E80012002AF5D193
:101AB000E06BFEF7D2FE6663A08DE18D401A81B225
:101AC0002AE0A08DE18D401A81B2E08D0028A5D0DA
:101AD0000029A3D022680C3252E8000F20F4907045
:101AE00042E80007002FF5D12068143050E8002F9D
:101AF00022F0010240E80027002FF5D184F842309F
:101B0000256320680C3050E8002F22F0100240E8D6
:101B10000023002BF5D166632046FFF706FFF8BDD2
:101B2000FFE705062BD5150629D594F84100212895
:101B3000F5D1A068B0F5805F01D12069B0B1206A0D
:101B4000411C2162216800784860E08C401E00043E
:101B5000000CE084E3D12068C16821F08001C160FD
:101B60002068C16841F04001C160D8E7206A008860
:101B7000C0F308004860206A801C2062E5E7400648
:101B8000CDD55006CBD5CA68204622F04002CA60A7
:101B900084F8413000F0ECF8C1E70000E7250008C8
:101BA00070B5040004D094F84100002510B106E09F
:101BB000012070BD84F84050204600F023F8242016
:101BC00084F841002068C16821F40051C1602046BA
:101BD00000F09AFD2068016921F4904101612068BC
:101BE000416921F02A0141612068C16841F4005136
:101BF000C1606564202084F8410084F84200656378
:101C0000002070BD10B586B0044614216846FEF76A
:101C100083FB18492068884229D1174800210268AF
:101C200042F010020260006800F0100005901248B7
:101C30001438026842F001020260006800F00100FE
:101C400005904FF4C06000900220CDE9010103200F
:101C500003900720049069460848FEF759FE0022C9
:101C600005212520FEF7F2FF2520FEF7E1FF06B053
:101C700010BD000000100140443802400000024046
:101C800090F84230202B01D00220704721B11AB1C8
:101C90000023036300F0BEBD0120704710B500684B
:101CA000074988420BD107480178074802F026F817
:101CB000BDE81040012203490448FFF7E1BF10BD11
:101CC000001001400800002068410020E8030020C7
:101CD0002DE9F843044690F84100984616460D4613
:101CE000202802D00220BDE8F88385B17EB1002013
:101CF0006064212084F84100FEF710FFA68481462D
:101D0000E684A0682027B0F5805F02D003E00120C0
:101D1000E9E7206910B12E4600250EE000260CE010
:101D20008021204600F091FDA8B9C6B116F8010B3C
:101D300021684860E08C401EE084E08C4B464FF008
:101D40000002CDF800800028EAD14FF04001204683
:101D500000F07BFD40B184F841700320C3E735F803
:101D6000020BC0F30800E3E784F841700020BAE7F3
:101D70007047FEE770B50C46054600F097F820EA7C
:101D800004012846BDE8704000F0BAB82DE9FF5FB5
:101D90000027FE25DDF838A016468B468146B8465A
:101DA0000C2805D0B9F10E0F05D11227102001E043
:101DB00077273020804647F08001022000F0A0F80D
:101DC00080210420FFF7D6FF0021012000F098F8C1
:101DD00080210A2000F088F8002405E01BF8041098
:101DE000092000F08DF8641CB442F7D34946012065
:101DF00000F086F8B9F10C0F03D180210D2000F01E
:101E000073F8294E042000F051F80446761E04D0E1
:101E1000E00702D114EA080FF4D080210D20FFF76B
:101E2000A9FF36B1062000F041F810F01B0F0CD0CE
:101E3000FE2580210C2000F057F80021012000F041
:101E40005FF804B02846BDE8F09F00253C40E0075D
:101E500000D0FF25B9F10C0FEBD10A2000F026F8D5
:101E600004460C2000F022F810F007004FEAC401ED
:101E700004D008390844AAF8000001E0AAF80010CC
:101E800024B1122C04D91224002603E00124FBE71C
:101E9000002605E0092000F009F803998855761C12
:101EA000A642F7D3C5E70000E093040070B57E2199
:101EB00001EA40000B4E40F080044FF40065002220
:101EC00029463046FEF724FE204600F087F9002020
:101ED00000F084F90446012229463046FEF718FE38
:101EE000204670BD0004024070B50C460546FFF761
:101EF000DDFF40EA04012846BDE87040AFF30080F2
:101F00002DE9F0410E467E2101EA40040A4F4FF4CC
:101F10000065002229463846FEF7FAFD204600F00B
:101F20005DF9304600F05AF929463846BDE8F041DF
:101F30000122FEF7EDBD00000004024010B58EB096
:101F40001C220B496846FEF7CEF90021684601F0D5
:101F500089F9084C06491C2220601C3107A8FEF7AD
:101F6000C2F9002107A801F07DF960600EB010BD34
:101F70006C500008000000202DE9F04387B01421C8
:101F80006846FEF7C9F928484FF00009016841F09A
:101F900020010160016801F020010591016841F014
:101FA00080010160016801F080010591016841F044
:101FB00004010160016801F004010591016841F02C
:101FC00002010160016801F002010591016841F020
:101FD000010101600068154F00F001004FF4C0647A
:101FE0000590012221463846FEF792FDDFF8408039
:101FF00040F60806012231464046FEF789FD00946E
:1020000001240225694638460194CDE90245FEF7D0
:102010007FFCCDE90064CDE9029569464046FEF7B4
:1020200077FC07B0BDE8F08330380240001402406E
:1020300000040240104810B50E4901604FF482714F
:10204000416000218160C1604FF400720161C0E90C
:1020500005121822C0E90721416281620A21C1628A
:10206000FFF7E6F8002803D0BDE81040FEF7F3BB09
:1020700010BD0000003800404803002010B586B0B5
:1020800000241748009401940294039404944FF0A0
:1020900080410594016040F2CF21C0E9011440F273
:1020A000CF71C0E9031480218161FFF7A9FA08B15B
:1020B000FEF7D1FB4FF48050009069460848FFF7C7
:1020C0001FFB08B1FEF7C7FB049404A9044805945C
:1020D000FFF74EFA002801D0FEF7BDFB06B010BD99
:1020E000A00300200C4810B50A4901604FF4E1310B
:1020F0004160002181600C22C160C0E9041281614D
:10210000C161FFF74DFD002803D0BDE81040FEF788
:10211000A2BB10BD00100140E8030020FEE7FEE76F
:1021200070B50646082188B000240846FFF722FE55
:1021300000210D20FFF7E4FE80210E20FFF71AFE9C
:1021400093208DF8040020208DF8050006A801AB2F
:102150000090022219460C20FFF718FE05000DD151
:10216000002101A8425C7254425C491C5440C9B22F
:102170000429F7D3405CA04200D0FE2580210E2028
:10218000FFF7B2FE08B0284670BD30B50C460546D4
:10219000082187B00846FFF7EDFD07210D20FFF766
:1021A000AFFE03211420FFF79FFE06A801AB0090AD
:1021B0008DF80450012219460C20FFF7E7FD002896
:1021C00009D1BDF81810102905D19DF8041021700F
:1021D0009DF80510617007B030BD000001B582B0F8
:1021E0000A2000900123044A02A90448FFF7C6F818
:1021F000014800780EBD0000840000204803002044
:10220000F8B515460E460B460092044601220221FF
:1022100000F02CF8A0B9134813490068B0FBF1F0A6
:102220004FF47A71484300906068B0F5827F0DD119
:102230003346002280212046009500F017F870B147
:10224000606D40F0200060650320F8BD009830B15B
:10225000401E009020688068C0430006F6D500202C
:10226000F8BD00001800002000366E012DE9F8438B
:102270001E46914688460446089DFEF74FFC401BCB
:10228000351AFEF74BFC074625480068C0F3CB30F3
:10229000684338E0701C37D0FEF740FCC01BA842F2
:1022A00003D215B1009860B32CE02068416821F09A
:1022B000E00141606068B0F5827F0BD1A068B0F5A5
:1022C000004F02D0B0F5806F04D12068016821F082
:1022D00040010160A06AB0F5005F09D12068016883
:1022E00021F4005101602068016841F4005101604F
:1022F000012084F85100002084F850000320BDE83C
:10230000F8830025401E00902068816838EA0100AB
:1023100004D000214945BDD10020F0E70121F9E7B3
:1023200018000020084C4FF4007526154FF4FA777A
:1023300029462046FEF7E4FB31462046FEF7E0FB47
:10234000384600F083FFF3E70014024086B01349DB
:102350004FF4FA74D1E90001CDE90301002101A88D
:1023600001F0D4F9A0B99DF8070000909DF806305F
:102370009DF805209DF8041009A000F0C1FA042280
:1023800003A901A8FDF7E8FF30B10AA000F0B8FAF0
:10239000204600F05BFFE1E709A0F7E76450000882
:1023A000BFA8BAC5A3BA25782D25782D25782D2567
:1023B000780A0000BFA8BAC5B4EDCEF30D0A00003C
:1023C000BFA8BAC5D5FDC8B70D0A000010B550208A
:1023D00080F31188BFF34F8FBFF36F8F02F074FD4E
:1023E00018B104494FF080500860002080F3118834
:1023F00010BD000004ED00E030B593B03021684618
:10240000FDF78AFF14210CA8FDF786FF1C48002564
:10241000016841F080510160006800F08050119027
:102420001848016841F4804101600068022400F40A
:102430008040119001200090000401908001CDE9BE
:10244000064008AA0420482182E813000B90684641
:10245000FEF738FD08B172B6FEE70CA90F2081E83F
:1024600031004FF48050CDE90F0502210CA8FEF792
:102470001FFC002801D072B6FEE713B030BD00008B
:1024800040380240007000400248016841F4700189
:102490000160704788ED00E00148FFF7A0B9000037
:1024A00030040020F0B50268294C2A4D2A4E2B4FEB
:1024B0002B4B4FF0804CA04209D0604507D0A8427A
:1024C00005D0B04203D0B84201D0984204D122F0E6
:1024D000700E4A6842EA0E02A0421BD0604519D035
:1024E000A84217D0B04215D0B84213D0984211D0AC
:1024F0001C4DA8420ED01C4DA8420BD01B4DA8422B
:1025000008D01B4DA84205D01A4DA84202D01A4D42
:10251000A84203D122F44075CA682A434D6922F0CB
:1025200080022A4302608A68C2620A688262A0420C
:1025300001D0984201D1096901630121416101691A
:10254000C90703D0016921F001010161F0BD00005C
:10255000000001400004004000080040000C004062
:102560000004014000400140004401400048014097
:1025700000180040001C00400020004010B5846896
:1025800042EA032224F47F440A432243826010BDBE
:10259000826822F070020A4342F0070181607047AE
:1025A00010B5036A046A24F001040462846924F00B
:1025B000F00444EA021423F00A020A43846102622E
:1025C00010BD10B5036A046A24F010040462846923
:1025D00023F0A00324F4704444EA023243EA0111D8
:1025E0008261016210BD10B5806B0021C185C1847C
:1025F000FFF79CF910BD01680C3151E8002F22F45F
:10260000907241E80023002BF5D10168143151E8A4
:10261000002F22F0010241E80023002BF5D1016BCD
:10262000012909D101680C3151E8002F22F0100274
:1026300041E80023002BF5D1202180F84210002131
:102640000163704708B590F84210222901D002209A
:1026500008BD82684FF480539A4201D1016921B1CB
:10266000816A9A421BD04AB10AE00268816A5268C4
:10267000C2F308020A80816A891C08E0026972B10B
:102680000268526802F07F020A70816A491C816206
:10269000C18D491E0904090CC18503D01BE00268E5
:1026A0005268F1E70168CA6822F02002CA60016836
:1026B000CA6822F48072CA6001684A6922F0010285
:1026C0004A61202180F8421000214163026B012AF7
:1026D00003D0FFF7E3FA002008BD016301680C3165
:1026E00051E8002F22F0100241E80023002BF5D121
:1026F00001680A68D20602D50A6849680091818D8E
:10270000FFF713F9E7E7000070B5044600680169B8
:10271000E26821F44051114301612169A068E26936
:1027200008436169114308432168CA6849F20C6390
:102730009A430243CA6020684169A26921F440714A
:102740001143416131492068884202D030498842B2
:1027500002D1FEF777FB01E0FEF764FBE26900239C
:10276000192164253226B2F5004F626828D0A0FBFB
:102770000101930F9200FDF785FD0146B0FBF5F0D6
:102780006FF01802504301EB800006EB0010B0FB25
:10279000F5F000F0F002B1FBF5F002EB0012B1FB36
:1027A000F5F06FF01803584301EB800006EB0010C2
:1027B000B0FBF5F000F00F0021681044886070BD98
:1027C000A0FB010192185B41FDF75CFD0146B0FBE7
:1027D000F5F00201B1FBF5F06FF01803584301EB7F
:1027E000800006EBC000B0FBF5F000F0F80002EB53
:1027F0004002B1FBF5F0584301EB800006EBC0004E
:10280000B0FBF5F000F00700D6E700000010014033
:102810000014014081628285C28500214164222129
:1028200080F84210016921B10168CA6842F48072DF
:10283000CA6001684A6942F001024A610068C168E1
:1028400041F02001C160002070472DE9F84398460F
:1028500017460D460446089E24E0701C22D0FEF761
:102860005DF9A0EB0800B0421AD8CEB12068C1686B
:10287000490717D5802D15D0402D13D00168C943C5
:1028800009070FD401680025406800902046FFF733
:10289000B2FE0820606484F840500120BDE8F8834F
:1028A0000320FBE72068006835EA000004D0002020
:1028B000B842D2D00020F1E70120F9E70148FFF744
:1028C00037B80000E8030020FEE70000054904488F
:1028D0004FF4007288666C31024801F009BB0000B9
:1028E000E92800086841002001B54FF6FF73012276
:1028F00069460248FFF7ECF908BD0000E803002034
:102900000FB4054B10B503A9044A029800F0EAF889
:1029100010BC5DF814FB0000ED310008E000002061
:102920000907090E002804DB00F1E02080F80014FC
:10293000704700F00F0000F1E02080F8141D704790
:1029400002E008C8121F08C1002AFAD17047704778
:10295000002001E001C1121F002AFBD170470000D6
:102960002DE9FF5F82B00021DDE90430020DDDF8C2
:1029700040B0034318D044F61050A2F2FF32424355
:102980001514119801281FD0A5EB0B00401C5FEA1D
:10299000000A4FF000064E4FDFF83891B04650461F
:1029A00015D5CAF1000413E0119801244AA30128A7
:1029B00001D16FEA0B010298119AC0E90031C0E918
:1029C000024206B0BDE8F09FCBF10000DFE704460D
:1029D0000021404A491842EB0450CDE9001012E0B2
:1029E000E00707D032463B4640464946FDF79FFD8B
:1029F0008046894632463B4610461946FDF797FD0C
:102A000006460F466410002CEAD1DDE90401DDE939
:102A10000023BAF1000F06DAFDF789FD42464B4666
:102A2000FDF785FD05E0FDF7F4FD42464B46FDF759
:102A3000F0FD04460E460022284BFDF771FE03D838
:102A40004FF0FF30014607E00022254B204631467B
:102A5000FDF7C6FCFDF74CFE102409E0002C0ADB54
:102A60000A220023FDF70EFC039B30321A55641E28
:102A700050EA0102F2D1641C039AC4F11103144418
:102A8000119A012A03D0012208430DD10AE008431C
:102A900004D000204FF0110B119072E7A3EB0B054F
:102AA0006D1E0DE05B4504DD4FF0000205F10105F0
:102AB00004E003DA4FF00002A5F10105002AECD092
:102AC00002981199C0E90231C0E9004579E7000098
:102AD000000014400000F03F300000000000F04310
:102AE0000000E03F2DE9FF4F95B09A468846064624
:102AF0000025EEE1252877D100242746F94A012157
:102B0000039400E0044316F8013F203B01FA03F070
:102B10001042F7D130782A2811D06FF02F03307887
:102B2000A0F13002092A16D8039A44F0020402EBFD
:102B3000820203EB42021044761C0390EFE758F840
:102B4000042B0392002A03DA504244F40054039009
:102B500044F00204761C30782E2816D116F8010FA6
:102B600044F004042A280DD06FF02F023078A0F131
:102B70003003092B09D807EB870302EB4303C7187F
:102B8000761CF3E758F8047B761C30786C280FD05D
:102B900006DC4C2817D068280DD06A2814D104E030
:102BA000742810D07A280FD10DE044F400140AE004
:102BB00044F4801401E044F440147278824202D15B
:102BC00004F58014761C761C307866280BD013DC54
:102BD000582877D009DC002875D04528F6D046283B
:102BE000F4D047281AD193E118E0632835D064283F
:102BF00079D0652812D18BE1702873D008DC672862
:102C0000F1D069286FD06E280DD06F2806D1ACE0C6
:102C100073282CD0752874D0782853D05246179931
:102C200090476D1C54E1C4F30250022809D00328D8
:102C30000DD0D8F8001004280DD00D6008F104085C
:102C400046E1D8F80010EA17C1E90052F6E7D8F8D3
:102C500000100D80F2E70D70F0E718F8041B8DF8F6
:102C6000001000208DF80100EB46012003E058F829
:102C700004BB4FF0FF3061074FF0000102D40DE0BC
:102C800009F101018946B9420FDA8145F8DB1BF8E9
:102C900009100029F4D108E009F1010189468142B7
:102CA000FADB1BF809100029F6D103985346A0EB74
:102CB000090721463846179A00F080FA284400EBAD
:102CC000090507E044E008E10DE01BF8010B52465E
:102CD00017999047B9F10109F7D253462146384672
:102CE000179AF2E039E00A21C4F302524FF0000BC8
:102CF0000091022A06D058F8040BC117032A09D004
:102D00000AE023E008F1070020F00702F2E80201E0
:102D1000904605E000B2C117042A01D140B2C117A4
:102D2000002906DA0A460021404261EB02012D2209
:102D300002E0220504D52B228DF80420012203E0B5
:102D4000E20701D02022F7E7914657E00A2100E090
:102D500010214FF0000B00910BE010214FF0000B01
:102D600044F004040827009103E008204FF0000B12
:102D70000090C4F30252022A05D058F8040B002137
:102D8000032A08D008E008F1070020F00702F2E863
:102D90000201904603E080B2042A00D1C0B24FF095
:102DA000000922072AD53278702A07D0DDF800C042
:102DB0008CF0100C5CEA0B0C05D00EE040228DF874
:102DC0000420012208E050EA010306D030238DF8E8
:102DD00004308DF8052002229146009B83F0080301
:102DE00053EA0B030AD150EA010201D1620705D56B
:102DF00030228DF804204FF001097F1E3278582AC6
:102E000004D039A20C920CAA02920BE03BA2F9E783
:102E10005B46009AFDF736FA0C9B9B5C029A521EA9
:102E20000292137050EA0102F2D1029804A9081A22
:102E300000F1200B600702D524F4803400E0012764
:102E40005F4502DDA7EB0B0000E0002000EB0B016B
:102E5000009003984944401A0390E00306D4534677
:102E60002146179A039800F0A9F90544002706E0C7
:102E700001A85246C05D179990476D1C7F1C4F45B5
:102E8000F6DBE0030CD553462146179A039800F071
:102E900095F9054404E030205246179990476D1C7F
:102EA0000099481E00900029F5DC08E0029802997C
:102EB00052460078491C0291179990476D1CBBF14E
:102EC0000001ABF1010BF1DC5BE100F065F90544B9
:102ED000761C307800287FF40DAE19B02846BDE886
:102EE000F08F000009280100303132333435363795
:102EF0003839616263646566000000003031323346
:102F000034353637383941424344454600000000E5
:102F1000600700D4062708F1070020F00700F0E85A
:102F20000223804603F0004C5FEA0C0001D097A01A
:102F300009E0200501D596A005E0E00701D095A0A5
:102F400001E0AFF24C001390307823F00043652885
:102F50000CD006DC452809D046281DD047287FD153
:102F60003BE0662818D067287AD136E00021112F7F
:102F700001DB112000E0781CCDE9000104A90CA8B8
:102F8000FFF7EEFCDDE90D010C9A4FF0000B07F1A5
:102F90000109109200914EE04FF000400097CDE9FA
:102FA000011004A90CA8FFF7DBFCDDE90D020C9B66
:102FB0000F994FF0000B91461093009211B9791CB4
:102FC00000EB0109B7EB090003D4C0F1FF3B07F1A7
:102FD0000109A9EB0700019042E0012F00DA012767
:102FE0000021112F01DD112000E03846CDE900015C
:102FF00004A90CA8FFF7B4FCDDE90D010C9A0091BF
:103000004FF0000BB946109221070FD4009A4A45A1
:1030100003DA914601E0A9F10109B9F1010F05DDDB
:10302000109AA9F10101515C3029F4D0B84202DABA
:1030300010F1040F03DA0121CDE9011010E000289E
:1030400003DC8344A9EB000102E0411C494500DD9B
:103050008946A0EB0B00401C01904FF0004002900D
:10306000200705D40198484502DB4FF0FF3001905E
:1030700000208DF84B0002980DF14B07B0F1004F86
:1030800025D002200C902B200D90029800280CDAFD
:10309000404202902D200D9007E00A210298FDF792
:1030A0006AF93031029007F8011D0C99481E0C9006
:1030B0000029F2DC02980028EFD1791E0D980870E3
:1030C000307800F0200040F0450007F8020D11A80C
:1030D000C01BC01D02901398007800B1012000EBC6
:1030E0000901019801EBE071029801440398401A2C
:1030F000401E0390E00306D453462146179A0398D6
:1031000000F05CF805441398007818B152461799FE
:1031100090476D1CE00323D553462146179A039828
:1031200000F04CF805441BE0BBF1000F07DB0098F2
:10313000584504DD1098179910F80B0001E0179915
:1031400030205246904701980BF1010B401E05F1CB
:103150000105019004D12E205246179990476D1C0D
:10316000B9F10001A9F10109DEDC05E017F8010B56
:103170005246179990476D1C0299481E02900029EB
:10318000F4DC53462146179A03989EE62D00000072
:103190002B000000200000002DE9F041044600252E
:1031A0001E461746880404D405E039462020B0475F
:1031B0006D1C641EF9D52846BDE8F0812DE9F0416B
:1031C000044600251E469046C80301D5302700E07E
:1031D0002027880404D505E041463846B0476D1CD9
:1031E000641EF9D52846BDE8F081000038B50446D4
:1031F0008DF800000223012269460248FEF768FDAF
:10320000204638BDE8030020FDF796FCFFF7F4F8F0
:10321000FEF7B2FEFEF732FFFEF70CFFFEF762FF8D
:10322000012205490548FEF72BFDFFF74FFBFEF78E
:1032300085FE00F012F8FEE708000020E8030020F9
:1032400001460020842900D0C81C704710B500B981
:10325000012001F0D5FC002010BD10B501F0F6FCF6
:10326000002010BD7FB50D4604464169B0F9080045
:1032700081B1A16971B1FFF7E3FFD4E905128DE8CF
:103280000700D4E900102B46226901F0F2FD0390FB
:1032900004B070BDFFF7D4FF03A9CDE90001208A77
:1032A0002B4682B2D4E9001001F0B6FD012801D00E
:1032B0000020EDE70398EBE72DE9F041184C0F46AD
:1032C0000546E6682068001D01F0D2FB38B9206889
:1032D00090F82C1001208840216981432161681CED
:1032E00007D137B12168BDE8F0410E48091D01F052
:1032F00003BC20683544B5424560216805D2A06B07
:10330000BDE8F041091D01F0DFBB606B091D01F054
:10331000DBFBA06A854200D2A562BDE8F081000017
:103320001C000020540500202DE9F041054601F065
:10333000EFFB2E4CA068401CA06020682C4F10B101
:10334000606940B32DE02560A068012829D10026DE
:1033500006EB860007EB800001F0A8FB761C072E29
:10336000F6D323488C3001F0A1FB2148A03001F0B6
:103370009DFB1F48B43001F099FB1D48C83001F097
:1033800095FB1B48DC3001F091FB19488C306063E1
:103390001430A06305E02068E96AC06A884200D85A
:1033A0002560606A401C6062E96A012022698840E9
:1033B0001043206101EB810007EB8000291D01F023
:1033C0009BFB01F0C5FB606900280CD02068E96A0E
:1033D000C06A884207D207494FF080500860BFF3A7
:1033E0004F8FBFF36F8FBDE8F08100001C000020FD
:1033F0007804002004ED00E010B5044690F8610068
:1034000058B101280CD002280FD0502080F3118829
:10341000BFF34F8FBFF36F8FFEE7206B01F0ACFB64
:103420002046BDE8104001F0A7BB10BD10484FF486
:103430007051420706D0C01D0D4920F00700411A07
:10344000C1F570510B4A00230144C2E90003083959
:10345000183A21F0070111604B600B600B1AC0E9AC
:10346000001393604FF000405360506170470000BC
:103470006805002070000020144E154CA6F1C80706
:103480004FF08058DFF84C9012E000BF01F040FB95
:10349000F068C568281D01F0EBFAA068401EA06026
:1034A0006068401E606001F053FB2846FFF7A4FFF0
:1034B00060680028EAD138680128F9D9C9F8008085
:1034C000BFF34F8FBFF36F8FF2E70000400500207E
:1034D0001C00002004ED00E02DE9F0479A46DDE9EC
:1034E000098481466FF00303206B03EB82021044D2
:1034F000089E20F00707780707D0502080F3118836
:10350000BFF34F8FBFF36F8FFEE7002561B100203F
:1035100023180A5C83F834200A5C12B1401C1E2870
:10352000F6D384F8515001E084F83450072E00D3CC
:103530000626E662C4E91565201D01F0C2FA04F111
:10354000180001F0BEFA2461C6F107006462A061B0
:10355000E56584F8605052464946384600F0C0F8A8
:103560002060B8F1000F01D0C8F80040BDE8F08736
:1035700030B5114900E011460A688242FBD34B681E
:103580005C18844203D14068184448600846436888
:103590001C18944209D1084C183C2468A24209D056
:1035A00052681A4442600A6812680260814200D080
:1035B000086030BD0460F9E7700000200648416BE8
:1035C000096829B1416BC968C96849688162704757
:1035D0004FF0FF31FAE700001C0000200848406867
:1035E000401C4FF0500080F3118804D0BFF34F8F80
:1035F000BFF36F8FFEE7BFF34F8FBFF36F8FFEE711
:10360000780000202DE9F0410546002701F054FB29
:10361000324E306808B9FFF709FF706905424ED194
:10362000C5B3083568070ED005F00700C0F10800E3
:103630000544680707D0502080F31188BFF34F8FEF
:10364000BFF36F8FFEE72DB37068854237D82348EC
:10365000183001460C6801E020460C466168A9421A
:1036600002D221680029F7D131688C4227D007683F
:103670002168016060680837411B10290FD9601963
:10368000420708D0502080F31188BFF34F8FBFF35B
:103690006F8FFEE713E041606560FFF769FF6168C7
:1036A0007068401A7060B268904200D2B060706971
:1036B00001430020C4E90001F068401CF06001F003
:1036C00069FC780707D0502080F31188BFF34F8F33
:1036D000BFF36F8FFEE73846BDE8F0815800002049
:1036E00010B5031F4FF080741C601B1F21F00101F7
:1036F0001960191F044B0B6014390A60091F6FF021
:10370000020244380A6010BDDD3500087CB50C4665
:10371000054669465220FEF738FD18B92846FEF7DF
:10372000FFFC08B101207CBD04B1A04700207CBD96
:10373000012100F04DB80B784BB14A7802F00F022E
:10374000082A04D002685AB11278134208D090F8BF
:103750006000C00702D14878C00601D5002070473C
:103760004FF0FF307047000010B500F093FA0028CA
:1037700005D00349896BBDE8104001F049B910BD7F
:103780008C000020F8B505468089E989401A04B20A
:10379000202607E08DF80060AA6E01216846904758
:1037A000641E24B2002CF5DC297B2846BDE8F840D5
:1037B00000F07AB810B500F06DFA002803D0BDE82B
:1037C000104000F075BC10BD4FF0FF31AFF300802A
:1037D000F8B50446481C03D00023E28912B103E087
:1037E0000123FAE701295DD0A089824201D14D1C55
:1037F00058D00025824201D1012901D0184613E09A
:10380000521E401EE28180B2A08121690D542046E3
:10381000BDE8F840012100F047B822691144421E7A
:10382000465C401C8E5400B2A289E189521A824241
:10383000F3DCA089401EA081082643B9E089401E20
:10384000E0818DF80060A26E012168469047A18951
:1038500020694554B4F90E5009E020690121405D0A
:103860008DF80000A26E684690476D1C2DB2A089AD
:10387000A842F2DC20208DF80000A26E01216846EB
:103880009047A089E189401A401C05B208E000BFBA
:103890008DF80060A26E0121684690476D1E2DB222
:1038A000002DF5DCF8BD000070B50C46054603E0C0
:1038B00003A1284601F0ACF8641EE4B2F8D270BD52
:1038C000082008004FF0FF3100F092BA10B504460E
:1038D00000F006F82046BDE81040012101F02AB8AA
:1038E000F8B50446808900283CD021690025224E85
:1038F0000D5494F86000C00728D0204600F0C4FAA8
:1039000008200090A189202304F11402206900F00E
:1039100081FE0004000CE086E581A58122D017A17C
:10392000204601F075F800232046A26D616900F081
:103930004DFD010004D02046BDE8F84000F0E8BC91
:103940002046B169BDE8F84001F062B8206881689E
:103950002069FCF7F3FC30B1716B204601F058F898
:10396000A581E581F8BD94F8600040F0010084F87D
:1039700060003168F1E700008C0000200D0A0000B3
:103980000178272906D0014600200A785C2A03D056
:1039900010467047411CF7E749786E290FD004DCC8
:1039A0003029F6D0622904D105E0722905D07429A6
:1039B00007D008467047082070470D2070470A203E
:1039C000704709207047F0B50746002539780A2668
:1039D000012328462C462D2908D00021CA19002190
:1039E00092F800C0BCF1300F04D01EE04FF0FF335E
:1039F0000121F3E75178782907D0582905D06229A9
:103A000005D0422903D002210FE003210DE001215E
:103A10000BE092F800C0BCF12E0F06D192F801C065
:103A2000BCF1000F01D0042111E012F801CBBCF170
:103A3000000FEED1012908D0022903D0032906D1B5
:103A4000102603E00826012501E0022602253D4458
:103A50005A1C02D0002215441FE00122FBE72E2A47
:103A600005D0A2F13007092F03D8FAB20FE00124E4
:103A700012E0A2F16107052F01D8573A04E0A2F144
:103A80004107052F02D8373AD2B200E0002200FBEE
:103A9000062004EB840254006D1C2A78002ADED133
:103AA000042913D194B100EE100AB8EE401A00EECA
:103AB000104AB8EE400AC1EE000A00EE103AB8EE25
:103AC000C00A20EE800A10EE100AF0BD5843F0BD87
:103AD0002DE9F041044608781E464FF0FF3522B12B
:103AE000242833D14A7822B930E027280AD02D285B
:103AF00003D0A0F13002092A0BD80846FFF763FF74
:103B0000306036E04A78002AF3D00846FFF738FFE5
:103B1000F6E74FF00008242806D0B8B100270D467C
:103B20000C46222814D01EE04A78002AF6D0002342
:103B30002046491CA26D00F049FC010006D0204639
:103B400000F0BCF830604046BDE8F0812846FBE755
:103B50006C1C254607E05C280DD0222811D0E855C2
:103B60007F1CBFB2641C20780028F4D105F80780C0
:103B700035600020E8E72046FFF702FFE855641CA7
:103B8000EEE705F80780EBE72DE9F04F8BB00C4628
:103B900083469A461546202103A8FCF7BDFBA07872
:103BA0006E1E00F00F07B74200DC374600254FF0CD
:103BB000FF380DF10C090AE00AEB850009EB8503DB
:103BC000416800225846FFF783FFB0BB6D1CB54229
:103BD000F2DB082F3DD2DFE807F004090D12181EB2
:103BE0002631A06880470BB0BDE8F08FA16803982C
:103BF0008847F8E7DDE90301A2689047F3E703ADE2
:103C0000A36895E807009847EDE703ADA46895E839
:103C10000F00A047E7E7A468079803AD009095E878
:103C20000F00A047DFE7A468DDE9070103ADCDE998
:103C3000000195E80F00A047D5E70AE007ABA468AC
:103C400093E807008DE8070003AD95E80F00A04753
:103C5000C9E74046C7E7C0687047000000B50021CB
:103C60000B4A30235354491CC9B20929FAD341786D
:103C700001F00F01012903D9072901D9082901D829
:103C8000406800BD4068024900F0FCFD004800BDEE
:103C9000E84300200849002051F8202032B192F872
:103CA0006020920702D551F820007047401C00B2F6
:103CB0000528F1DB00207047D44300204A7800201B
:103CC00002F00F02921E062A06D2DFE802F0030677
:103CD0000A0D0D0F8868006870478868B0F9000009
:103CE00070478868007870478868704788684168BE
:103CF00009B1006808470020704700002DE9F05F17
:103D00005FEA0109054649D0A86B1824002710F482
:103D10007F4F03D000246FF0FF070AE010F47F0FFD
:103D200002D00824274F04E0000E02D010244FF0E8
:103D30007F470026B246D5F8588033E008EB061BD3
:103D40009BF8010000F00F00092829D159462846A8
:103D5000FFF7F1FC20BBDBF80400AB6B00EA0701C6
:103D600099421DD1FF2202FA04F1084009FA04F138
:103D7000884215D10B434FF00009AB6334B1A4F175
:103D80000801DBF804008A40104209D108EB061054
:103D9000816809B128468847C5F838A0BDE8F09F7A
:103DA000761C36B2B5F85C00B042C7DCB9F1000F42
:103DB000F4D049462846C5F838A0BDE8F05F00F0C9
:103DC0008FBA00000000FFFF10B50B460446FFF756
:103DD00061FF00280BD0012C05D008DD5968BDE833
:103DE000104000F07BBDBDE8104000F061B910BD8F
:103DF00070B500250446002918DDB4F95430A3F14C
:103E00000100A4F85400B4F85010B4F852008142F4
:103E100001D90A4600E002465242934212DC814236
:103E200000D908464042A4F854000BE009DAB4F87F
:103E30005400401C00B2A4F85400002802DDA4F88D
:103E4000545070BD2046FFF79DFCB4F95400C0B13A
:103E5000B4F8521008440521401D90FBF1F201FB1B
:103E6000120004EB8000C16B206900F05BFCA081B4
:103E70000028E6D0E08120462169BDE8704000F0CE
:103E8000C7BDA581E58170BD70B500250446A0F8C9
:103E90005450B0F8500058B1B4F85200216900B93C
:103EA000052004EB8000806BFCF748FA00281ED048
:103EB000B4F85200216904EB8000C06B00F032FCC2
:103EC00020B1B4F85200401CA4F85200B4F85000DD
:103ED000401C80B2A4F85000052802D90520A4F89F
:103EE0005000B4F85200052801D3A4F8525070BD18
:103EF00010B504460020A081E0810B46206094F8B4
:103F0000601041F0010184F860100621B2FBF1F16C
:103F10002361A186A4F85400A4F85000A4F852002C
:103F2000A28E411C02FB013204EB8000C26308B286
:103F30000528F5DB11481249A065081A0009A4F804
:103F40005C001049002000BF51F820209AB1401CAD
:103F500000B20528F8DB00230BA12046A26D00F07B
:103F600035FA0146204600F069FA2046BDE81040C7
:103F7000012100F0DFBC41F82040ECE77C54000850
:103F8000AC550008D44300206C6574746572000061
:103F9000F8B504468089A28E521E90420EDB364848
:103FA0004168204600F034FD0121204600F0C2FCAB
:103FB00020462169BDE8F84000F02ABDE2890023CF
:103FC000824217D1256900F10102A2812954A289F8
:103FD00020698354E08900F10100E08194F86000D9
:103FE000C00700D12A218DF80010A26E0121684679
:103FF0009047F8BDFDD2801A00B206E0E58922693B
:104000001544421EAE5C465510B20028F6DCE0892D
:104010002569421CE2812954A0892169401C80B293
:10402000A0810B54E089401E05B20FE094F86000B7
:10403000C00702D02069405D00E02A208DF8000012
:10404000A26E0121684690476D1C2DB2A089A8423E
:10405000ECDCE18980B2401A05B2082608E000BF16
:104060008DF80060A26E0121684690476D1E2DB24A
:10407000002DF5DCF8BD00008C00002010B5FFF726
:1040800009FE002803D0BDE8104000F0B1B810BD13
:1040900038B50446C089002809D008208DF80000F2
:1040A000A26E012168469047E089401EE08138BD3C
:1040B0002DE9F0410646876D0F488168304600F0D3
:1040C000A7FC002412E000BF07EB0415687800F09D
:1040D0000F00012808D829463046FFF72CFB18B9F5
:1040E0002946304600F00AF8641C24B2B6F85C0099
:1040F000A042E9DCBDE8F0818C000020F8B505465F
:104100000E460846FFF7AAFD0146284600F080FC4F
:10411000C0F1160004B2002C00DC04245FF020077C
:104120008DF80070AA6E012168469047641E24B283
:10413000002CF5D1707800F00F012948012901D831
:10414000016C0CE0072901D8416C08E0082901D86E
:10415000816C04E0092901D8C16C00E0016D28469A
:1041600000F056FC1FA1284600F052FC072401274E
:10417000307807FA04F1084201D0782000E02D20C1
:104180008DF80000AA6E012168469047641E64B253
:10419000002CEDDA13A1284600F03AFC3046FFF778
:1041A0005AFDAA6E03460021A2B102E0491C89B261
:1041B000401C04781CB10D2C01D00A2CF6D1242906
:1041C00006D9242118469047032107A0AA6E00E0D3
:1041D000184690472846BDE8F84004A100F018BCF6
:1041E0008C000020202000002E2E2E000D0A000042
:1041F0002DE9F0410646876D10484169304600F0D0
:1042000007FC002414E000BF07EB0415687800F0F9
:104210000F0008280AD9092808D829463046FFF790
:104220008AFA18B929463046FFF768FF641C24B2A1
:10423000B6F85C00A042E7DCBDE8F0818C0000200D
:104240002DE9F0410646876D10480169304600F0BF
:10425000DFFB002414E000BF07EB0415687800F0D2
:104260000F0007280AD9082808D829463046FFF742
:1042700062FA18B929463046FFF740FF641C24B2A1
:10428000B6F85C00A042E7DCBDE8F0818C000020BD
:104290002DE9F0410646876D1048C168304600F0B0
:1042A000B7FB002413E000BF07EB0415687800F0AB
:1042B0000F00801E052808D829463046FFF73BFA34
:1042C00018B929463046FFF719FF641C24B2B6F826
:1042D0005C00A042E8DCBDE8F08100008C0000201A
:1042E00090F8602022F0040280F86020FFF750BEB2
:1042F00008B5C1898289914209D203694A1CC281E9
:10430000595C8DF80010826E01216846904708BD07
:104310002DE9F047044690F860000F4640F0020097
:1043200084F86000497800250A0704F114090BD0CD
:1043300001F00F0001282FD0811E052937D83946FA
:10434000204600F00FF938E00025A84617E000BF2E
:1043500004EB850670690178222904D180F8008079
:104360007069401C7061FBF7E2FF80B27169401E0A
:104370000A5C222A01D101F800806D1CADB2E08EEA
:10438000A842E5D8BA68E08E494690470AE0294637
:10439000204600F0FDFA10E0E28E4B4639462046FA
:1043A000FFF7F2FB054678788006F0D505E008288F
:1043B00003D13946204600F041F814F8600F20F090
:1043C000020020702846BDE8F08700002DE9F04784
:1043D00006468A46B16DB0F85C00511AA0EB111088
:1043E0009946154687B200241BE000BF05EB041870
:1043F00098F8010000F00F00092810D0414630461F
:10440000FFF799F958B94046FFF728FC0146B9F182
:1044100000000BD002465046FBF79EFF50B1641CD3
:10442000A4B2BC42E2D30020BDE8F0875046FBF7BF
:1044300085FFF3E705EB0410F6E7000070B50446CE
:10444000016088680D4600B3FBF771FFE8B1E08EAC
:10445000022804D3A169A868FBF770FFA8B194F8FB
:10446000600020F0010000BF0B4D84F86000204682
:10447000A96B00F0CDFA94F86000C0070AD020467E
:104480002968BDE8704000F0C3BA94F8600040F0BD
:104490000100E9E770BD00008C0000202DE9F0412B
:1044A0000E460746FFF7F6FB041E16D000233946DA
:1044B000A26DFFF78BFF0E4D010010D0487800F081
:1044C0000F00801E06280CD33946204600F0A0FAC3
:1044D000696A204600F09CFA0020BDE8F081A96AD4
:1044E000F7E732462046BDE8F04100F003B800008F
:1044F0008C00002070B50C460546497818484B06DC
:1045000001D5016A18E001F00F01891E062921D2A8
:10451000DFE801F00306090C1116A068026019E03B
:10452000A068028016E0A068027013E01146A0683F
:1045300000F0F8F80EE0C169284600F069FA09E0D9
:10454000A068836833B1006810B11146984701E054
:104550001046984721462846BDE8704000F002B852
:104560008C000020FEB523A20C46064607CA8DE843
:10457000070021463046FFF7A1FB0546304661683B
:1045800000F046FA1EA1304600F042FA607800F0D2
:104590000F00052823D06946284600F04DF9C0F1E8
:1045A0000B006C460119304600F032FA15A1304676
:1045B00000F02EFA002130206054491C09B20B296A
:1045C000FADB6946284600F05DF96946304600F09E
:1045D0001FFA0EA1304600F01BFA2846FEBD0CA1C2
:1045E000304600F015FA2946304600F011FA08A1CD
:1045F000ECE70000303030303030303030303000D8
:10460000203D20002C203078000000000D0A000022
:10461000220000002DE9FF4F0126002484B08946C6
:10462000DDF844B00094019402942246A04621464D
:10463000A646039404E0069C44F821E0491C09B214
:104640005945F8DB0021B9F1000F53D92B4DEA464B
:10465000445C9C4211D0012E04D00EE0002AF7D019
:1046600000241AE0D84508DA069C461844F8286069
:104670000026344608F1010821E09C4201D0202C9C
:1046800000D10EB100241AE0441800F801E064786B
:10469000202C2BD0012629E092B105EB440C475C7D
:1046A0009CF801C067450AD10AEB020715F814C04F
:1046B00017F8017C674502D1521ED2B20EE0475C6A
:1046C00015F814C0674505D10AF802C0521C02F063
:1046D0000F0203E0641C14F0FF04DDD0445C5C2C8A
:1046E00004D1441864780CB1491C89B2491C89B2C0
:1046F0004945B3D308B04046BDE8F08F880000209C
:1047000030B504460020024605E0AB4209D1401C0A
:10471000521C80B292B2A35C002B02D08D5C002DA3
:10472000F3D130BD0246002002E01354401C80B299
:104730000B5C002BF9D10021115470472DE9F05F7B
:10474000B0F834804FF00009818904464D4631B1FC
:104750002069CA46564600F801A0A76D3BE02046F6
:10476000FFF7A6FC2046BDE8F05F012100F0E2B8AB
:1047700007EB06118B462046FEF7DDFF48BB584687
:10478000FFF76CFA01462069FFF7BAFFA18988425A
:104790001FD1D5B1012D03D126A1204600F038F953
:1047A00007EB091949462046FFF7A8FC5846FFF7D2
:1047B00055FA83464846FFF751FA5946FFF7A0FFDE
:1047C0004146804500D8084680466D1C1FFA86F990
:1047D000ADB2761C36B2B4F85C00B042C8DC002D35
:1047E00026D0012D02D12046FEF7CCFF07EB0910A1
:1047F0000646FFF733FA01462069FFF793FFA081D1
:10480000012D09D931462046FFF778FC01212046C9
:1048100000F090F8A4F80C80A289216901F802A0A8
:10482000A089E08120462169BDE8F05F00F0F0B882
:10483000BDE8F09F0D0A000030B50B22031E00DA20
:1048400043420024CC720A240AE000BF93FBF4F533
:1048500004FB153593FBF4F3521ED2B230358D5460
:10486000002BF3D1002802DA4FF02D0002E005D131
:104870004FF03000A2F10102D2B28854C2F10B0015
:1048800040B230BD082200230B720AE000F00F0393
:10489000092B01D9573300E03033521ED2B2000940
:1048A0008B540028F2D1C2F1080040B270470121B8
:1048B000FFF79EBA10B5FFF7EDF9002803D0BDE869
:1048C0001040FFF7BDBC10BD10B5FFF7E3F900289D
:1048D00003D0BDE81040FFF7DBBC10BD70B5054646
:1048E0000023826DFFF772FD0400104817D0C16AE3
:1048F000284600F08DF82046FFF7B0F9014628461B
:1049000000F086F80AA1284600F082F82046FFF75A
:10491000A2F90146284600F07BF805A100E0816974
:104920002846BDE8704000F073B800008C000020FD
:104930000D0A000010B5044690F86000C00719D0B9
:1049400019B10EA1204600F063F8206841682046A6
:1049500000F05EF80AA1204600F05AF8A16801B9FB
:1049600008A1204600F054F807A12046BDE81040F9
:1049700000F04EB80548016BF7E700000D0A000093
:104980003A0000002F000000242000008C000020CE
:10499000FEB516A20D46064607CA8DE8070016A109
:1049A000304600F035F869462846FFF745FFC0F16C
:1049B0000B006C460119304600F02AF811A1304670
:1049C00000F026F800223020A054521C12B20B2A0C
:1049D000FADB69462846FFF755FF6946304600F086
:1049E00017F80AA1304600F013F8FEBD3030303021
:1049F000303030303030300052657475726E3A208D
:104A0000000000002C203078000000000D0A00009B
:104A100010B50B46846E00211A461CB9002010BD4B
:104A2000491C89B212F8010B0028F9D11846A04799
:104A300080B210BD10B513460A46014602A0FDF72C
:104A40005FFF002010BD0000696E70757420696EF4
:104A5000743A2025642C20636861723A2025632C07
:104A600020737472696E673A2025730D0A00000086
:104A7000D0E9013201699A60D0E901235A604A689D
:104A8000824201D182684A60002202610868401EA9
:104A90000860086870470000034B036003F164007E
:104AA0000860802010607047E400002000F10801D9
:104AB0004FF0FF32C0E90112C160016100210160C5
:104AC000704700210161704730B50B685A1C02D055
:104AD00000F1080202E0026904E0224654682568F9
:104AE0009D42FAD953684B6099608A6051600861B1
:104AF0000168491C016030BD42684A6093688B6060
:104B000093685960916008610168491C01607047B1
:104B1000502080F31188BFF34F8FBFF36F8F0A4986
:104B20004868401C486001280CD10848006810F013
:104B3000FF0F07D0502080F31188BFF34F8FBFF3D2
:104B40006F8FFEE7704700007800002004ED00E062
:104B50000849486828B1401E486001D180F3118897
:104B60007047502080F31188BFF34F8FBFF36F8FD2
:104B7000FEE700007800002070B500282AD0164D0E
:104B8000A0F1080460686969084207D1502080F3E9
:104B90001188BFF34F8FBFF36F8FFEE722683AB1E2
:104BA000502080F31188BFF34F8FBFF36F8FFEE764
:104BB0008843606000F080F8606869680844686055
:104BC0002046FEF7D5FC2869401C2861BDE87040EE
:104BD00000F0E0B970BD0000580000204FF0E02068
:104BE00000210161816105494FF47A720968B1FBC6
:104BF000F2F1491E41610721016170471800002050
:104C000010B5020014D00F48006B38B1502080F36B
:104C10001188BFF34F8FBFF36F8FFEE700F04CF8A2
:104C200000211046FEF748FB00F0B4F9002807D138
:104C300005494FF080500860BFF34F8FBFF36F8F6F
:104C400010BD00001C00002004ED00E010B586B08F
:104C50000024039405AA04A903A80494FFF71CFFE9
:104C6000DDE903010094CDE9011000230EA11048F5
:104C7000059A00F0FEF80F490028C86211D05020B4
:104C800080F31188BFF34F8FBFF36F8F4FF0FF306A
:104C9000886201204861CC6006B0BDE8104000F099
:104CA00041B806B010BD000049444C45000000006A
:104CB000793400081C0000200248016B491C016384
:104CC000704700001C0000201448016B11B1012145
:104CD000C16170470021C1610169B1FA81F1C1F17F
:104CE0001F0101EB81020E4951F822306BB101EB3B
:104CF000820101F108034A6852684A609A4201D170
:104D000052684A60D16801607047502080F3118872
:104D1000BFF34F8FBFF36F8FFEE700001C00002032
:104D2000780400201CB537480168374A914207D102
:104D3000502080F31188BFF34F8FBFF36F8FFEE7D2
:104D400000683149491E884207D1502080F31188FC
:104D5000BFF34F8FBFF36F8FFEE72C4908780190A8
:104D6000FF20087008788DF800009DF800009DF87D
:104D7000002000F0F000904207D0502080F311880E
:104D8000BFF34F8FBFF36F8FFEE79DF80000204CFD
:104D900000F0500020700720A06005E09DF8002082
:104DA00052008DF80020401E9DF800201206F5D418
:104DB000A060032807D0502080F31188BFF34F8FE5
:104DC000BFF36F8FFEE74FF44070A060019808704A
:104DD0000C482030016841F470010160016841F025
:104DE00070410160FFF7FAFE00206060FBF7FCF9FC
:104DF0000848016841F040410160FBF7E1F90020FB
:104E00001CBD000000ED00E071C20F4100E400E0B5
:104E10007800002034EF00E02DE9FF5F8346DDE9F4
:104E20000E87994616468A469000FEF7EBFB050072
:104E30001CD06420FEF7E6FB040014D0002025639C
:104E400084F86100CDE90240CDE900874B46324647
:104E500051465846FEF740FB2046FEF765FA012012
:104E600004B0BDE8F09F2846FFF786FE4FF0FF3004
:104E7000F6E7F0B585B0DDE90B640A9DA6B1DCB1BB
:104E8000642700972663022684F86160002604AF39
:104E9000CDE90246CDE90057FEF71EFB2046FEF79E
:104EA00043FA049805B0F0BD502080F31188BFF399
:104EB0004F8FBFF36F8FFEE7502080F31188BFF351
:104EC0004F8FBFF36F8FFEE72DE9F0412F4C002687
:104ED000206B28B1A069401CA0613046BDE8F0817C
:104EE000E5686D1CE56013D1606B006838B1502037
:104EF00080F31188BFF34F8FBFF36F8FFEE7606BB6
:104F0000A16B6163A063206A401C2062FEF756FB20
:104F1000A06ADFF87C80854209D3606B0068A0B18D
:104F2000606BC068C7687868854211D2A06220684B
:104F3000C06A00EB800158F82100012800D9012641
:104F4000E0690028C9D00126C7E74FF0FF30EDE740
:104F5000381DFFF78DFDB86A18B107F11800FFF78B
:104F600087FDF96A0120226988401043206101EB26
:104F7000810108EB8100391DFFF7BEFDF86A216849
:104F8000C96A8842C9D30126C7E700001C00002077
:104F9000780400202DE9F0472C4D00242746286B8B
:104FA00038B1FFF7B5FD286B401E2863286B40B170
:104FB00046E0502080F31188BFF34F8FBFF36F8F0F
:104FC000FEE7A968224E0120D1B3A6F1B4098046BC
:104FD0003068E8B1F068C46804F11800FFF748FDD4
:104FE000201DFFF745FDE06A2A6908FA00F1114328
:104FF000296100EB800109EB8100211DFFF77CFD99
:10500000E06A2968C96A8842E2D3C5F81C80DFE7F4
:105010000CB1FEF7D3FAAC6944B14646FFF754FF32
:1050200000B1EE61641EF9D10020A861E86938B1D1
:105030000849012738070860BFF34F8FBFF36F8F10
:10504000FFF786FD3846BDE8F08700001C00002011
:105050002C05002004ED00E0746573740074657322
:10506000740000007344A51700000000AC51000854
:105070002523000800000000000000008000000060
:105080000000000000000000A05100084D230008AF
:10509000FDFF000000000000800000000000000094
:1050A00000000000000000000000000001020304F6
:1050B0000607080900000000010203046C6574740F
:1050C0006572000064656661756C74207573657245
:1050D00000736574566172007365742076617200A6
:1050E000757000646F776E007269676874006C6534
:1050F000667400746162006261636B737061636502
:10510000006261636B73706163650064656C6574F4
:105110006500656E74657200656E74657200686521
:105120006C700073686F7720636F6D6D616E6420C3
:10513000696E666F0D0A68656C70205B636D645DF7
:10514000007573657273006C69737420616C6C20F8
:105150007573657200636D6473006C6973742061AC
:105160006C6C20636D640076617273006C6973749B
:1051700020616C6C20766172006B657973006C69DC
:10518000737420616C6C206B657900636C6561726F
:1051900000636C65617220636F6E736F6C650000F5
:1051A00052433532325F5461736B00004C45445FAB
:1051B0005461736B000000000D0A436F6D6D616EEA
:1051C00064204C6973743A0D0A0000000D0A5661A0
:1051D00072204C6973743A0D0A0000000D0A557371
:1051E0006572204C6973743A0D0A00000D0A4B6514
:1051F00079204C6973743A0D0A000000436F6D6D9D
:10520000616E64206E6F7420466F756E640D0A00C7
:105210000D0A5761726E696E673A20436F6D6D615A
:105220006E6420697320746F6F206C6F6E670D0A57
:1052300000000000206973206E6F74206120766189
:10524000720D0A0063616E277420736574207265A5
:105250006164206F6E6C79207661720D0A00000027
:1052600063616E27742073657420706F696E746556
:10527000720D0A000D0A205F20202020202020200F
:10528000205F2020205F20202020202020202020A0
:1052900020202020202020205F20202020202020CF
:1052A0002020205F205F200D0A7C207C20202020F1
:1052B0005F5F5F7C207C5F7C207C5F205F5F5F2086
:1052C0005F205F5F2020205F5F5F7C207C5F5F202E
:1052D00020205F5F5F7C207C207C0D0A7C207C206E
:1052E00020202F205F205C205F5F7C205F5F2F20CD
:1052F0005F205C20275F5F7C202F205F5F7C202762
:105300005F205C202F205F205C207C207C0D0A7CAD
:10531000207C5F5F7C20205F5F2F207C5F7C207C77
:105320007C20205F5F2F207C202020205C5F5F207E
:105330005C207C207C207C20205F5F2F207C207CD8
:105340000D0A7C5F5F5F5F5F5C5F5F5F7C5C5F5FE0
:105350007C5C5F5F5C5F5F5F7C5F7C202020207CEB
:105360005F5F5F2F5F7C207C5F7C5C5F5F5F7C5F4B
:105370007C5F7C0D0A0D0A4275696C643A2020201E
:1053800020202020536570203234203230323420E7
:1053900031363A35343A31330D0A56657273696FD6
:1053A0006E3A2020202020332E322E340D0A436FF7
:1053B000707972696768743A202020286329203246
:1053C000303230204C65747465720D0A00000000A4
:1053D0000D0A70617373776F7264206572726F72F9
:1053E0000D0A0000566172206E6F7420466F756E54
:1053F000740D0A001B5B324B0D000000434D44202E
:105400000000000056415220000000004B4559208A
:1054100000000000636F6D6D616E642068656C70E4
:10542000206F662000000000506C65617365206984
:105430006E7075742070617373776F72643A0000D8
:105440004E4F4E45000000001B5B324A1B5B31484B
:10545000000000005553455200000000AC55000804
:1054600000000020E40000004029000890560008D9
:10547000E40000201447000050290008000100004B
:1054800058500008354A00085D5000080008000028
:10549000BC500008C3500008C450000800210000A0
:1054A000D15000089D440008D850000800090000B1
:1054B00000415B1BAF480008E050000800090000F5
:1054C00000425B1BC5380008E350000800190000CB
:1054D00000435B1BF1420008E8500008001900007F
:1054E00000445B1B91400008EE50000800090000DA
:1054F000000000093D470008F350000800190000B3
:105500000000000831370008F750000800190000BB
:105510000000007F31370008015100080019000029
:105520007E335B1BC93700080B51000800190000CF
:105530000000000ACD3800081251000800190000D0
:105540000000000DCD3800081851000800200000B0
:105550001E510008C93D0008235100080021000029
:1055600041510008B54800084751000800210000DB
:1055700055510008B53700085A51000800210000B5
:1055800067510008C94800086C510008002100005C
:10559000795100087D4000087E510008002100007C
:1055A0008B51000869370008915100080000000085
:1055B00000000000000000000100000010000000DA
:1055C000000000000024F4000000000000000000C3
:1055D00000000000000000000000000000000000CB
:1055E00000000000000000000000000000000000BB
:1055F00000000000000000000000000000000000AB
:10560000000000000000000000000000000000009A
:10561000000000000000000000000000000000008A
:105620000000000000000000AAAAAAAA00000000D2
:1056300000000000222200007452000810520008EE
:10564000B8510008CC510008DC510008EC510008AA
:10565000FC5100086052000844520008345200080F
:10566000E45300081454000828540008D0530008DC
:1056700048540008F4530008FC5300080454000880
:10568000545400080C540008405400080000000066
:040000050800018965
:00000001FF
